{
  "address": "0x64Ac1C876861Bc4d72415fDF053Bee4F6c3BfB01",
  "abi": [
    {
      "inputs": [],
      "stateMutability": "nonpayable",
      "type": "constructor"
    },
    {
      "inputs": [],
      "name": "EmptyArgs",
      "type": "error"
    },
    {
      "inputs": [],
      "name": "EmptySource",
      "type": "error"
    },
    {
      "inputs": [],
      "name": "NoInlineSecrets",
      "type": "error"
    },
    {
      "inputs": [],
      "name": "OnlyRouterCanFulfill",
      "type": "error"
    },
    {
      "inputs": [
        {
          "internalType": "bytes32",
          "name": "requestId",
          "type": "bytes32"
        }
      ],
      "name": "UnexpectedRequestID",
      "type": "error"
    },
    {
      "anonymous": false,
      "inputs": [
        {
          "indexed": true,
          "internalType": "address",
          "name": "from",
          "type": "address"
        },
        {
          "indexed": true,
          "internalType": "address",
          "name": "to",
          "type": "address"
        }
      ],
      "name": "OwnershipTransferRequested",
      "type": "event"
    },
    {
      "anonymous": false,
      "inputs": [
        {
          "indexed": true,
          "internalType": "address",
          "name": "from",
          "type": "address"
        },
        {
          "indexed": true,
          "internalType": "address",
          "name": "to",
          "type": "address"
        }
      ],
      "name": "OwnershipTransferred",
      "type": "event"
    },
    {
      "anonymous": false,
      "inputs": [
        {
          "indexed": true,
          "internalType": "bytes32",
          "name": "id",
          "type": "bytes32"
        }
      ],
      "name": "RequestFulfilled",
      "type": "event"
    },
    {
      "anonymous": false,
      "inputs": [
        {
          "indexed": true,
          "internalType": "bytes32",
          "name": "id",
          "type": "bytes32"
        }
      ],
      "name": "RequestSent",
      "type": "event"
    },
    {
      "anonymous": false,
      "inputs": [
        {
          "indexed": true,
          "internalType": "bytes32",
          "name": "requestId",
          "type": "bytes32"
        },
        {
          "indexed": false,
          "internalType": "string",
          "name": "score",
          "type": "string"
        },
        {
          "indexed": false,
          "internalType": "bytes",
          "name": "response",
          "type": "bytes"
        },
        {
          "indexed": false,
          "internalType": "bytes",
          "name": "err",
          "type": "bytes"
        }
      ],
      "name": "Response",
      "type": "event"
    },
    {
      "anonymous": false,
      "inputs": [
        {
          "indexed": false,
          "internalType": "string",
          "name": "match_id",
          "type": "string"
        },
        {
          "indexed": false,
          "internalType": "string",
          "name": "uuid",
          "type": "string"
        },
        {
          "indexed": false,
          "internalType": "address",
          "name": "user_address",
          "type": "address"
        },
        {
          "indexed": false,
          "internalType": "uint256",
          "name": "betAmount",
          "type": "uint256"
        },
        {
          "indexed": false,
          "internalType": "int256",
          "name": "total_points",
          "type": "int256"
        },
        {
          "indexed": false,
          "internalType": "bytes32",
          "name": "squadHash",
          "type": "bytes32"
        }
      ],
      "name": "SquadRegistered",
      "type": "event"
    },
    {
      "anonymous": false,
      "inputs": [
        {
          "indexed": false,
          "internalType": "string",
          "name": "match_id",
          "type": "string"
        },
        {
          "indexed": false,
          "internalType": "address",
          "name": "user_address",
          "type": "address"
        },
        {
          "indexed": false,
          "internalType": "uint256",
          "name": "amount",
          "type": "uint256"
        }
      ],
      "name": "rewardsClaimed",
      "type": "event"
    },
    {
      "anonymous": false,
      "inputs": [
        {
          "indexed": true,
          "internalType": "bytes32",
          "name": "requestId",
          "type": "bytes32"
        },
        {
          "indexed": false,
          "internalType": "int256",
          "name": "_total",
          "type": "int256"
        }
      ],
      "name": "test",
      "type": "event"
    },
    {
      "inputs": [],
      "name": "acceptOwnership",
      "outputs": [],
      "stateMutability": "nonpayable",
      "type": "function"
    },
    {
      "inputs": [
        {
          "internalType": "string",
          "name": "match_id",
          "type": "string"
        },
        {
          "internalType": "bytes32",
          "name": "squadHash",
          "type": "bytes32"
        }
      ],
      "name": "claimRewards",
      "outputs": [],
      "stateMutability": "nonpayable",
      "type": "function"
    },
    {
      "inputs": [
        {
          "internalType": "string",
          "name": "uuid",
          "type": "string"
        }
      ],
      "name": "getMatchUserSquad",
      "outputs": [
        {
          "components": [
            {
              "internalType": "address",
              "name": "user_address",
              "type": "address"
            },
            {
              "internalType": "int256",
              "name": "total_points",
              "type": "int256"
            },
            {
              "internalType": "bytes32",
              "name": "squadHash",
              "type": "bytes32"
            }
          ],
          "internalType": "struct Betting.MatchUserSquad",
          "name": "",
          "type": "tuple"
        }
      ],
      "stateMutability": "view",
      "type": "function"
    },
    {
      "inputs": [
        {
          "internalType": "bytes32",
          "name": "requestId",
          "type": "bytes32"
        },
        {
          "internalType": "bytes",
          "name": "response",
          "type": "bytes"
        },
        {
          "internalType": "bytes",
          "name": "err",
          "type": "bytes"
        }
      ],
      "name": "handleOracleFulfillment",
      "outputs": [],
      "stateMutability": "nonpayable",
      "type": "function"
    },
    {
      "inputs": [
        {
          "internalType": "string",
          "name": "",
          "type": "string"
        }
      ],
      "name": "matchWinnerData",
      "outputs": [
        {
          "internalType": "int256",
          "name": "matchWinnerPoints",
          "type": "int256"
        },
        {
          "internalType": "address",
          "name": "matchWinner",
          "type": "address"
        },
        {
          "internalType": "uint256",
          "name": "matchPrizePool",
          "type": "uint256"
        },
        {
          "internalType": "bytes32",
          "name": "squadHash",
          "type": "bytes32"
        }
      ],
      "stateMutability": "view",
      "type": "function"
    },
    {
      "inputs": [],
      "name": "owner",
      "outputs": [
        {
          "internalType": "address",
          "name": "",
          "type": "address"
        }
      ],
      "stateMutability": "view",
      "type": "function"
    },
    {
      "inputs": [],
      "name": "s_lastError",
      "outputs": [
        {
          "internalType": "bytes",
          "name": "",
          "type": "bytes"
        }
      ],
      "stateMutability": "view",
      "type": "function"
    },
    {
      "inputs": [],
      "name": "s_lastRequestId",
      "outputs": [
        {
          "internalType": "bytes32",
          "name": "",
          "type": "bytes32"
        }
      ],
      "stateMutability": "view",
      "type": "function"
    },
    {
      "inputs": [],
      "name": "s_lastResponse",
      "outputs": [
        {
          "internalType": "bytes",
          "name": "",
          "type": "bytes"
        }
      ],
      "stateMutability": "view",
      "type": "function"
    },
    {
      "inputs": [],
      "name": "score",
      "outputs": [
        {
          "internalType": "string",
          "name": "",
          "type": "string"
        }
      ],
      "stateMutability": "view",
      "type": "function"
    },
    {
      "inputs": [
        {
          "internalType": "uint64",
          "name": "subscriptionId",
          "type": "uint64"
        },
        {
          "internalType": "string[]",
          "name": "args",
          "type": "string[]"
        }
      ],
      "name": "sendRequest",
      "outputs": [
        {
          "internalType": "bytes32",
          "name": "requestId",
          "type": "bytes32"
        }
      ],
      "stateMutability": "nonpayable",
      "type": "function"
    },
    {
      "inputs": [
        {
          "internalType": "string",
          "name": "match_id",
          "type": "string"
        },
        {
          "internalType": "string",
          "name": "uuid",
          "type": "string"
        },
        {
          "internalType": "int256",
          "name": "total_scores_players",
          "type": "int256"
        },
        {
          "internalType": "bytes32",
          "name": "squadHash",
          "type": "bytes32"
        }
      ],
      "name": "submitSquad",
      "outputs": [],
      "stateMutability": "payable",
      "type": "function"
    },
    {
      "inputs": [
        {
          "internalType": "address",
          "name": "to",
          "type": "address"
        }
      ],
      "name": "transferOwnership",
      "outputs": [],
      "stateMutability": "nonpayable",
      "type": "function"
    }
  ],
  "transactionHash": "0x5cdff5d2e61ffe42b3eb1dde01cb0047f6fcfa4fc588ba0d47560896cb823547",
  "args": [],
  "numDeployments": 2,
  "solcInputHash": "0cc757d7e186f4e144859626accec855",
  "bytecode": "0x600580546001600160a01b03191673234a5fb5bd614a7aa2ffab244d603abfa0ac5c5c17905561020060405261013c60a08181529062001f9760c0396006906200004a908262000281565b506007805463ffffffff1916620493e01790557f66756e2d617262697472756d2d7365706f6c69612d31000000000000000000006008553480156200008e57600080fd5b506005546001600160a01b03166080523380600081620000f55760405162461bcd60e51b815260206004820152601860248201527f43616e6e6f7420736574206f776e657220746f207a65726f000000000000000060448201526064015b60405180910390fd5b600080546001600160a01b0319166001600160a01b03848116919091179091558116156200012857620001288162000131565b5050506200034d565b336001600160a01b038216036200018b5760405162461bcd60e51b815260206004820152601760248201527f43616e6e6f74207472616e7366657220746f2073656c660000000000000000006044820152606401620000ec565b600180546001600160a01b0319166001600160a01b0383811691821790925560008054604051929316917fed8889f560326eb138920d842192f0eb3dd22b4f139c87a2c57538e05bae12789190a350565b634e487b7160e01b600052604160045260246000fd5b600181811c908216806200020757607f821691505b6020821081036200022857634e487b7160e01b600052602260045260246000fd5b50919050565b601f8211156200027c57600081815260208120601f850160051c81016020861015620002575750805b601f850160051c820191505b81811015620002785782815560010162000263565b5050505b505050565b81516001600160401b038111156200029d576200029d620001dc565b620002b581620002ae8454620001f2565b846200022e565b602080601f831160018114620002ed5760008415620002d45750858301515b600019600386901b1c1916600185901b17855562000278565b600085815260208120601f198616915b828110156200031e57888601518255948401946001909101908401620002fd565b50858210156200033d5787850151600019600388901b60f8161c191681555b5050505050600190811b01905550565b608051611c2762000370600039600081816102e30152610c9c0152611c276000f3fe6080604052600436106100c25760003560e01c80636e1cb94c1161007f578063b1e2174911610059578063b1e2174914610242578063bd8664ce14610258578063efedc669146102a3578063f2fde38b146102b857600080fd5b80636e1cb94c146101f257806379ba5097146102055780638da5cb5b1461021a57600080fd5b80630ca76175146100c7578063102d4e1b146100e9578063197e1f391461016d5780633944ea3a1461018d57806348a7d26d146101af5780634b0795a8146101dd575b600080fd5b3480156100d357600080fd5b506100e76100e2366004611444565b6102d8565b005b3480156100f557600080fd5b506101406101043660046114b0565b8051602081830181018051600a82529282019190930120915280546001820154600283015460039093015491926001600160a01b039091169184565b604080519485526001600160a01b0390931660208501529183015260608201526080015b60405180910390f35b34801561017957600080fd5b506100e76101883660046114ec565b61035c565b34801561019957600080fd5b506101a2610457565b6040516101649190611580565b3480156101bb57600080fd5b506101cf6101ca366004611593565b6104e5565b604051908152602001610164565b3480156101e957600080fd5b506101a261060d565b6100e7610200366004611621565b61061a565b34801561021157600080fd5b506100e76107bf565b34801561022657600080fd5b506000546040516001600160a01b039091168152602001610164565b34801561024e57600080fd5b506101cf60025481565b34801561026457600080fd5b506102786102733660046114b0565b61086e565b6040805182516001600160a01b03168152602080840151908201529181015190820152606001610164565b3480156102af57600080fd5b506101a26108d7565b3480156102c457600080fd5b506100e76102d3366004611694565b6108e4565b336001600160a01b037f000000000000000000000000000000000000000000000000000000000000000016146103215760405163c6829f8360e01b815260040160405180910390fd5b61032c8383836108f8565b60405183907f85e1543bf2f84fe80c6badbce3648c8539ad1df4d2b3d822938ca0538be727e690600090a2505050565b336001600160a01b0316600a8360405161037691906116bd565b908152604051908190036020019020600101546001600160a01b03161480156103bf575080600a836040516103ab91906116bd565b908152602001604051809103902060030154145b15610453576000600a836040516103d691906116bd565b908152604051908190036020018120600201549150339082156108fc029083906000818181858888f19350505050158015610415573d6000803e3d6000fd5b507f2424f3887c382ef65bff0c7d447a7368b0157e422ef1929b9d46bf64d30e580d833383604051610449939291906116d9565b60405180910390a1505b5050565b6003805461046490611707565b80601f016020809104026020016040519081016040528092919081815260200182805461049090611707565b80156104dd5780601f106104b2576101008083540402835291602001916104dd565b820191906000526020600020905b8154815290600101906020018083116104c057829003601f168201915b505050505081565b60006105286040805160e0810190915280600081526020016000815260200160008152602001606081526020016060815260200160608152602001606081525090565b6105c56006805461053890611707565b80601f016020809104026020016040519081016040528092919081815260200182805461056490611707565b80156105b15780601f10610586576101008083540402835291602001916105b1565b820191906000526020600020905b81548152906001019060200180831161059457829003601f168201915b50505050508261098890919063ffffffff16565b82156105df576105df6105d88486611741565b8290610995565b6105ff6105eb826109bf565b600754600854889163ffffffff1690610c97565b600281905595945050505050565b6004805461046490611707565b6040518060600160405280336001600160a01b0316815260200183815260200182815250600b8460405161064e91906116bd565b9081526040805160209281900383018120845181546001600160a01b0319166001600160a01b039091161781559284015160018401559201516002909101558290600a9061069d9087906116bd565b9081526040519081900360200190205412156107415781600a856040516106c491906116bd565b908152604051908190036020018120919091553390600a906106e79087906116bd565b908152602001604051809103902060010160006101000a8154816001600160a01b0302191690836001600160a01b0316021790555080600a8560405161072d91906116bd565b908152604051908190036020019020600301555b34600a8560405161075291906116bd565b9081526020016040518091039020600201600082825461077291906117da565b90915550506040517fec75acb7eb31f39481f33bc0468419aab01d57b18f59af2edd9961c860b0da79906107b1908690869033903490889088906117ed565b60405180910390a150505050565b6001546001600160a01b031633146108175760405162461bcd60e51b815260206004820152601660248201527526bab9ba10313290383937b837b9b2b21037bbb732b960511b60448201526064015b60405180910390fd5b60008054336001600160a01b0319808316821784556001805490911690556040516001600160a01b0390921692909183917f8be0079c531659141344cd1fd0a4f28419497f9722a3daafe3b4186f6b6457e091a350565b60408051606081018252600080825260208201819052818301529051600b906108989084906116bd565b90815260408051918290036020908101832060608401835280546001600160a01b03168452600181015491840191909152600201549082015292915050565b6009805461046490611707565b6108ec610d69565b6108f581610dbe565b50565b826002541461091d5760405163d068bf5b60e01b81526004810184905260240161080e565b6003610929838261188f565b506009610936838261188f565b506004610943828261188f565b50827f160ed0aaffbef6885155188b91459cb5a97d5daadccf7561d8c46deea6641b5060096003600460405161097b939291906119cb565b60405180910390a2505050565b6104538260008084610e67565b80516000036109b75760405163fe936cb760e01b815260040160405180910390fd5b60a090910152565b606060006109ce610100610ee5565b9050610a076040518060400160405280600c81526020016b31b7b232a637b1b0ba34b7b760a11b81525082610f0690919063ffffffff16565b8251610a25906002811115610a1e57610a1e611a0e565b8290610f24565b6040805180820190915260088152676c616e677561676560c01b6020820152610a4f908290610f06565b6040830151610a66908015610a1e57610a1e611a0e565b604080518082019091526006815265736f7572636560d01b6020820152610a8e908290610f06565b6060830151610a9e908290610f06565b60a08301515115610b32576040805180820190915260048152636172677360e01b6020820152610acf908290610f06565b610ad881610f5d565b60005b8360a0015151811015610b2857610b188460a001518281518110610b0157610b01611a24565b602002602001015183610f0690919063ffffffff16565b610b2181611a3a565b9050610adb565b50610b3281610f81565b60808301515115610bf657600083602001516002811115610b5557610b55611a0e565b03610b735760405163a80d31f760e01b815260040160405180910390fd5b60408051808201909152600f81526e39b2b1b932ba39a637b1b0ba34b7b760891b6020820152610ba4908290610f06565b610bbd83602001516002811115610a1e57610a1e611a0e565b6040805180820190915260078152667365637265747360c81b6020820152610be6908290610f06565b6080830151610bf6908290610f9f565b60c08301515115610c8f5760408051808201909152600981526862797465734172677360b81b6020820152610c2c908290610f06565b610c3581610f5d565b60005b8360c0015151811015610c8557610c758460c001518281518110610c5e57610c5e611a24565b602002602001015183610f9f90919063ffffffff16565b610c7e81611a3a565b9050610c38565b50610c8f81610f81565b515192915050565b6000807f00000000000000000000000000000000000000000000000000000000000000006001600160a01b031663461d27628688600188886040518663ffffffff1660e01b8152600401610cef959493929190611a53565b6020604051808303816000875af1158015610d0e573d6000803e3d6000fd5b505050506040513d601f19601f82011682018060405250810190610d329190611a9c565b60405190915081907f1131472297a800fee664d1d89cfa8f7676ff07189ecc53f80bbb5f4969099db890600090a295945050505050565b6000546001600160a01b03163314610dbc5760405162461bcd60e51b815260206004820152601660248201527527b7363c9031b0b63630b1363290313c9037bbb732b960511b604482015260640161080e565b565b336001600160a01b03821603610e165760405162461bcd60e51b815260206004820152601760248201527f43616e6e6f74207472616e7366657220746f2073656c66000000000000000000604482015260640161080e565b600180546001600160a01b0319166001600160a01b0383811691821790925560008054604051929316917fed8889f560326eb138920d842192f0eb3dd22b4f139c87a2c57538e05bae12789190a350565b8051600003610e89576040516322ce3edd60e01b815260040160405180910390fd5b83836002811115610e9c57610e9c611a0e565b90816002811115610eaf57610eaf611a0e565b90525060408401828015610ec557610ec5611a0e565b90818015610ed557610ed5611a0e565b9052506060909301929092525050565b610eed61135a565b8051610ef99083610fac565b5060006020820152919050565b610f138260038351611026565b8151610f1f9082611145565b505050565b8151610f319060c261116d565b506104538282604051602001610f4991815260200190565b604051602081830303815290604052610f9f565b610f688160046111d6565b600181602001818151610f7b91906117da565b90525050565b610f8c8160076111d6565b600181602001818151610f7b9190611ab5565b610f138260028351611026565b604080518082019091526060815260006020820152610fcc602083611ac8565b15610ff457610fdc602083611ac8565b610fe7906020611ab5565b610ff190836117da565b91505b60208084018390526040518085526000815290818401018181101561101857600080fd5b604052508290505b92915050565b6017816001600160401b03161161105257825161104c9060e0600585901b16831761116d565b50505050565b60ff816001600160401b03161161109257825161107a906018611fe0600586901b161761116d565b50825161104c906001600160401b03831660016111ed565b61ffff816001600160401b0316116110d35782516110bb906019611fe0600586901b161761116d565b50825161104c906001600160401b03831660026111ed565b63ffffffff816001600160401b0316116111165782516110fe90601a611fe0600586901b161761116d565b50825161104c906001600160401b03831660046111ed565b825161112d90601b611fe0600586901b161761116d565b50825161104c906001600160401b03831660086111ed565b60408051808201909152606081526000602082015261116683838451611272565b9392505050565b60408051808201909152606081526000602082015282515160006111928260016117da565b9050846020015182106111b3576111b3856111ae836002611aea565b611343565b84516020838201018581535080518211156111cc578181525b5093949350505050565b8151610f1f90601f611fe0600585901b161761116d565b604080518082019091526060815260006020820152835151600061121182856117da565b9050856020015181111561122e5761122e866111ae836002611aea565b6000600161123e86610100611be5565b6112489190611ab5565b90508651828101878319825116178152508051831115611266578281525b50959695505050505050565b604080518082019091526060815260006020820152825182111561129557600080fd5b83515160006112a484836117da565b905085602001518111156112c1576112c1866111ae836002611aea565b8551805183820160200191600091808511156112db578482525b505050602086015b6020861061131b57805182526112fa6020836117da565b91506113076020826117da565b9050611314602087611ab5565b95506112e3565b51815160001960208890036101000a0190811690199190911617905250849150509392505050565b815161134f8383610fac565b5061104c8382611145565b6040518060400160405280611382604051806040016040528060608152602001600081525090565b8152602001600081525090565b634e487b7160e01b600052604160045260246000fd5b604051601f8201601f191681016001600160401b03811182821017156113cd576113cd61138f565b604052919050565b600082601f8301126113e657600080fd5b81356001600160401b038111156113ff576113ff61138f565b611412601f8201601f19166020016113a5565b81815284602083860101111561142757600080fd5b816020850160208301376000918101602001919091529392505050565b60008060006060848603121561145957600080fd5b8335925060208401356001600160401b038082111561147757600080fd5b611483878388016113d5565b9350604086013591508082111561149957600080fd5b506114a6868287016113d5565b9150509250925092565b6000602082840312156114c257600080fd5b81356001600160401b038111156114d857600080fd5b6114e4848285016113d5565b949350505050565b600080604083850312156114ff57600080fd5b82356001600160401b0381111561151557600080fd5b611521858286016113d5565b95602094909401359450505050565b60005b8381101561154b578181015183820152602001611533565b50506000910152565b6000815180845261156c816020860160208601611530565b601f01601f19169290920160200192915050565b6020815260006111666020830184611554565b6000806000604084860312156115a857600080fd5b83356001600160401b0380821682146115c057600080fd5b909350602085013590808211156115d657600080fd5b818601915086601f8301126115ea57600080fd5b8135818111156115f957600080fd5b8760208260051b850101111561160e57600080fd5b6020830194508093505050509250925092565b6000806000806080858703121561163757600080fd5b84356001600160401b038082111561164e57600080fd5b61165a888389016113d5565b9550602087013591508082111561167057600080fd5b5061167d878288016113d5565b949794965050505060408301359260600135919050565b6000602082840312156116a657600080fd5b81356001600160a01b038116811461116657600080fd5b600082516116cf818460208701611530565b9190910192915050565b6060815260006116ec6060830186611554565b6001600160a01b039490941660208301525060400152919050565b600181811c9082168061171b57607f821691505b60208210810361173b57634e487b7160e01b600052602260045260246000fd5b50919050565b60006001600160401b038084111561175b5761175b61138f565b8360051b602061176c8183016113a5565b86815291850191818101903684111561178457600080fd5b865b848110156117b85780358681111561179e5760008081fd5b6117aa36828b016113d5565b845250918301918301611786565b50979650505050505050565b634e487b7160e01b600052601160045260246000fd5b80820180821115611020576110206117c4565b60c08152600061180060c0830189611554565b82810360208401526118128189611554565b6001600160a01b0397909716604084015250506060810193909352608083019190915260a09091015292915050565b601f821115610f1f57600081815260208120601f850160051c810160208610156118685750805b601f850160051c820191505b8181101561188757828155600101611874565b505050505050565b81516001600160401b038111156118a8576118a861138f565b6118bc816118b68454611707565b84611841565b602080601f8311600181146118f157600084156118d95750858301515b600019600386901b1c1916600185901b178555611887565b600085815260208120601f198616915b8281101561192057888601518255948401946001909101908401611901565b508582101561193e5787850151600019600388901b60f8161c191681555b5050505050600190811b01905550565b6000815461195b81611707565b8085526020600183811680156119785760018114611992576119c0565b60ff1985168884015283151560051b8801830195506119c0565b866000528260002060005b858110156119b85781548a820186015290830190840161199d565b890184019650505b505050505092915050565b6060815260006119de606083018661194e565b82810360208401526119f0818661194e565b90508281036040840152611a04818561194e565b9695505050505050565b634e487b7160e01b600052602160045260246000fd5b634e487b7160e01b600052603260045260246000fd5b600060018201611a4c57611a4c6117c4565b5060010190565b6001600160401b038616815260a060208201526000611a7560a0830187611554565b61ffff9590951660408301525063ffffffff92909216606083015260809091015292915050565b600060208284031215611aae57600080fd5b5051919050565b81810381811115611020576110206117c4565b600082611ae557634e487b7160e01b600052601260045260246000fd5b500690565b8082028115828204841417611020576110206117c4565b600181815b80851115611b3c578160001904821115611b2257611b226117c4565b80851615611b2f57918102915b93841c9390800290611b06565b509250929050565b600082611b5357506001611020565b81611b6057506000611020565b8160018114611b765760028114611b8057611b9c565b6001915050611020565b60ff841115611b9157611b916117c4565b50506001821b611020565b5060208310610133831016604e8410600b8410161715611bbf575081810a611020565b611bc98383611b01565b8060001904821115611bdd57611bdd6117c4565b029392505050565b60006111668383611b4456fea2646970667358221220c45b3f33edcf04a70824256af9cc3cdd40dbc5425ba1f1260cf91f1687d13dc164736f6c63430008130033636f6e7374206d617463685f6964203d20617267735b305d3b636f6e737420706c61796572735f6964203d20617267735b315d3b636f6e737420617069526573706f6e7365203d2061776169742046756e6374696f6e732e6d616b654874747052657175657374287b75726c3a206068747470733a2f2f707563652d736d6f6767792d636c616d2e6379636c69632e6170702f73636f7265732f247b6d617463685f69647d2f247b706c61796572735f69647d2f607d293b69662028617069526573706f6e73652e6572726f7229207b7468726f77204572726f72282752657175657374206661696c656427293b7d636f6e7374207b2064617461207d203d20617069526573706f6e73653b72657475726e2046756e6374696f6e732e656e636f6465537472696e6728646174612e746f74616c5f73636f7265293b",
  "devdoc": {
    "kind": "dev",
    "methods": {
      "handleOracleFulfillment(bytes32,bytes,bytes)": {
        "details": "Either response or error parameter will be set, but never both.",
        "params": {
          "err": "Aggregated error either from the request's source code or from the execution pipeline.",
          "requestId": "The requestId returned by FunctionsClient.sendRequest().",
          "response": "Aggregated response from the request's source code."
        }
      }
    },
    "version": 1
  },
  "userdoc": {
    "kind": "user",
    "methods": {
      "acceptOwnership()": {
        "notice": "Allows an ownership transfer to be completed by the recipient."
      },
      "handleOracleFulfillment(bytes32,bytes,bytes)": {
        "notice": "Chainlink Functions response handler called by the Functions Router during fullilment from the designated transmitter node in an OCR round."
      },
      "owner()": {
        "notice": "Get the current owner"
      },
      "transferOwnership(address)": {
        "notice": "Allows an owner to begin transferring ownership to a new address."
      }
    },
    "version": 1
  },
  "storageLayout": {
    "storage": [
      {
        "astId": 816,
        "contract": "contracts/Protocol.sol:Betting",
        "label": "s_owner",
        "offset": 0,
        "slot": "0",
        "type": "t_address"
      },
      {
        "astId": 818,
        "contract": "contracts/Protocol.sol:Betting",
        "label": "s_pendingOwner",
        "offset": 0,
        "slot": "1",
        "type": "t_address"
      },
      {
        "astId": 2281,
        "contract": "contracts/Protocol.sol:Betting",
        "label": "s_lastRequestId",
        "offset": 0,
        "slot": "2",
        "type": "t_bytes32"
      },
      {
        "astId": 2283,
        "contract": "contracts/Protocol.sol:Betting",
        "label": "s_lastResponse",
        "offset": 0,
        "slot": "3",
        "type": "t_bytes_storage"
      },
      {
        "astId": 2285,
        "contract": "contracts/Protocol.sol:Betting",
        "label": "s_lastError",
        "offset": 0,
        "slot": "4",
        "type": "t_bytes_storage"
      },
      {
        "astId": 2302,
        "contract": "contracts/Protocol.sol:Betting",
        "label": "router",
        "offset": 0,
        "slot": "5",
        "type": "t_address"
      },
      {
        "astId": 2305,
        "contract": "contracts/Protocol.sol:Betting",
        "label": "source",
        "offset": 0,
        "slot": "6",
        "type": "t_string_storage"
      },
      {
        "astId": 2308,
        "contract": "contracts/Protocol.sol:Betting",
        "label": "gasLimit",
        "offset": 0,
        "slot": "7",
        "type": "t_uint32"
      },
      {
        "astId": 2311,
        "contract": "contracts/Protocol.sol:Betting",
        "label": "donID",
        "offset": 0,
        "slot": "8",
        "type": "t_bytes32"
      },
      {
        "astId": 2313,
        "contract": "contracts/Protocol.sol:Betting",
        "label": "score",
        "offset": 0,
        "slot": "9",
        "type": "t_string_storage"
      },
      {
        "astId": 2345,
        "contract": "contracts/Protocol.sol:Betting",
        "label": "matchWinnerData",
        "offset": 0,
        "slot": "10",
        "type": "t_mapping(t_string_memory_ptr,t_struct(WinnerData)2340_storage)"
      },
      {
        "astId": 2350,
        "contract": "contracts/Protocol.sol:Betting",
        "label": "matchUserData",
        "offset": 0,
        "slot": "11",
        "type": "t_mapping(t_string_memory_ptr,t_struct(MatchUserSquad)2331_storage)"
      }
    ],
    "types": {
      "t_address": {
        "encoding": "inplace",
        "label": "address",
        "numberOfBytes": "20"
      },
      "t_bytes32": {
        "encoding": "inplace",
        "label": "bytes32",
        "numberOfBytes": "32"
      },
      "t_bytes_storage": {
        "encoding": "bytes",
        "label": "bytes",
        "numberOfBytes": "32"
      },
      "t_int256": {
        "encoding": "inplace",
        "label": "int256",
        "numberOfBytes": "32"
      },
      "t_mapping(t_string_memory_ptr,t_struct(MatchUserSquad)2331_storage)": {
        "encoding": "mapping",
        "key": "t_string_memory_ptr",
        "label": "mapping(string => struct Betting.MatchUserSquad)",
        "numberOfBytes": "32",
        "value": "t_struct(MatchUserSquad)2331_storage"
      },
      "t_mapping(t_string_memory_ptr,t_struct(WinnerData)2340_storage)": {
        "encoding": "mapping",
        "key": "t_string_memory_ptr",
        "label": "mapping(string => struct Betting.WinnerData)",
        "numberOfBytes": "32",
        "value": "t_struct(WinnerData)2340_storage"
      },
      "t_string_memory_ptr": {
        "encoding": "bytes",
        "label": "string",
        "numberOfBytes": "32"
      },
      "t_string_storage": {
        "encoding": "bytes",
        "label": "string",
        "numberOfBytes": "32"
      },
      "t_struct(MatchUserSquad)2331_storage": {
        "encoding": "inplace",
        "label": "struct Betting.MatchUserSquad",
        "members": [
          {
            "astId": 2326,
            "contract": "contracts/Protocol.sol:Betting",
            "label": "user_address",
            "offset": 0,
            "slot": "0",
            "type": "t_address"
          },
          {
            "astId": 2328,
            "contract": "contracts/Protocol.sol:Betting",
            "label": "total_points",
            "offset": 0,
            "slot": "1",
            "type": "t_int256"
          },
          {
            "astId": 2330,
            "contract": "contracts/Protocol.sol:Betting",
            "label": "squadHash",
            "offset": 0,
            "slot": "2",
            "type": "t_bytes32"
          }
        ],
        "numberOfBytes": "96"
      },
      "t_struct(WinnerData)2340_storage": {
        "encoding": "inplace",
        "label": "struct Betting.WinnerData",
        "members": [
          {
            "astId": 2333,
            "contract": "contracts/Protocol.sol:Betting",
            "label": "matchWinnerPoints",
            "offset": 0,
            "slot": "0",
            "type": "t_int256"
          },
          {
            "astId": 2335,
            "contract": "contracts/Protocol.sol:Betting",
            "label": "matchWinner",
            "offset": 0,
            "slot": "1",
            "type": "t_address"
          },
          {
            "astId": 2337,
            "contract": "contracts/Protocol.sol:Betting",
            "label": "matchPrizePool",
            "offset": 0,
            "slot": "2",
            "type": "t_uint256"
          },
          {
            "astId": 2339,
            "contract": "contracts/Protocol.sol:Betting",
            "label": "squadHash",
            "offset": 0,
            "slot": "3",
            "type": "t_bytes32"
          }
        ],
        "numberOfBytes": "128"
      },
      "t_uint256": {
        "encoding": "inplace",
        "label": "uint256",
        "numberOfBytes": "32"
      },
      "t_uint32": {
        "encoding": "inplace",
        "label": "uint32",
        "numberOfBytes": "4"
      }
    }
  }
}