{
  "address": "0x652EF3aCf48B0000e6dfd55aAFD25BA872e6973B",
  "abi": [
    {
      "inputs": [],
      "stateMutability": "nonpayable",
      "type": "constructor"
    },
    {
      "anonymous": false,
      "inputs": [
        {
          "indexed": true,
          "internalType": "bytes32",
          "name": "id",
          "type": "bytes32"
        }
      ],
      "name": "ChainlinkCancelled",
      "type": "event"
    },
    {
      "anonymous": false,
      "inputs": [
        {
          "indexed": true,
          "internalType": "bytes32",
          "name": "id",
          "type": "bytes32"
        }
      ],
      "name": "ChainlinkFulfilled",
      "type": "event"
    },
    {
      "anonymous": false,
      "inputs": [
        {
          "indexed": true,
          "internalType": "bytes32",
          "name": "id",
          "type": "bytes32"
        }
      ],
      "name": "ChainlinkRequested",
      "type": "event"
    },
    {
      "anonymous": false,
      "inputs": [
        {
          "indexed": false,
          "internalType": "string",
          "name": "match_id",
          "type": "string"
        },
        {
          "indexed": false,
          "internalType": "string",
          "name": "uuid",
          "type": "string"
        },
        {
          "indexed": false,
          "internalType": "address",
          "name": "user_address",
          "type": "address"
        },
        {
          "indexed": false,
          "internalType": "uint256",
          "name": "betAmount",
          "type": "uint256"
        },
        {
          "indexed": false,
          "internalType": "int256",
          "name": "total_points",
          "type": "int256"
        },
        {
          "indexed": false,
          "internalType": "bytes32",
          "name": "squadHash",
          "type": "bytes32"
        }
      ],
      "name": "SquadRegistered",
      "type": "event"
    },
    {
      "anonymous": false,
      "inputs": [
        {
          "indexed": false,
          "internalType": "string",
          "name": "match_id",
          "type": "string"
        },
        {
          "indexed": false,
          "internalType": "address",
          "name": "user_address",
          "type": "address"
        },
        {
          "indexed": false,
          "internalType": "uint256",
          "name": "amount",
          "type": "uint256"
        }
      ],
      "name": "rewardsClaimed",
      "type": "event"
    },
    {
      "anonymous": false,
      "inputs": [
        {
          "indexed": true,
          "internalType": "bytes32",
          "name": "requestId",
          "type": "bytes32"
        },
        {
          "indexed": false,
          "internalType": "int256",
          "name": "_total",
          "type": "int256"
        }
      ],
      "name": "test",
      "type": "event"
    },
    {
      "inputs": [
        {
          "internalType": "string",
          "name": "match_id",
          "type": "string"
        },
        {
          "internalType": "bytes32",
          "name": "squadHash",
          "type": "bytes32"
        }
      ],
      "name": "claimRewards",
      "outputs": [],
      "stateMutability": "nonpayable",
      "type": "function"
    },
    {
      "inputs": [
        {
          "internalType": "bytes32",
          "name": "_requestId",
          "type": "bytes32"
        },
        {
          "internalType": "int256",
          "name": "_total_scores_players",
          "type": "int256"
        }
      ],
      "name": "fulfill",
      "outputs": [],
      "stateMutability": "nonpayable",
      "type": "function"
    },
    {
      "inputs": [
        {
          "internalType": "string",
          "name": "uuid",
          "type": "string"
        }
      ],
      "name": "getMatchUserSquad",
      "outputs": [
        {
          "components": [
            {
              "internalType": "address",
              "name": "user_address",
              "type": "address"
            },
            {
              "internalType": "int256",
              "name": "total_points",
              "type": "int256"
            },
            {
              "internalType": "bytes32",
              "name": "squadHash",
              "type": "bytes32"
            }
          ],
          "internalType": "struct Protocol.MatchUserSquad",
          "name": "",
          "type": "tuple"
        }
      ],
      "stateMutability": "view",
      "type": "function"
    },
    {
      "inputs": [
        {
          "internalType": "string",
          "name": "match_id",
          "type": "string"
        }
      ],
      "name": "isWinner",
      "outputs": [
        {
          "internalType": "bool",
          "name": "",
          "type": "bool"
        }
      ],
      "stateMutability": "view",
      "type": "function"
    },
    {
      "inputs": [
        {
          "internalType": "string",
          "name": "",
          "type": "string"
        }
      ],
      "name": "matchWinnerData",
      "outputs": [
        {
          "internalType": "int256",
          "name": "matchWinnerPoints",
          "type": "int256"
        },
        {
          "internalType": "address",
          "name": "matchWinner",
          "type": "address"
        },
        {
          "internalType": "uint256",
          "name": "matchPrizePool",
          "type": "uint256"
        },
        {
          "internalType": "bytes32",
          "name": "squadHash",
          "type": "bytes32"
        }
      ],
      "stateMutability": "view",
      "type": "function"
    },
    {
      "inputs": [
        {
          "internalType": "string",
          "name": "api",
          "type": "string"
        }
      ],
      "name": "submitOracle",
      "outputs": [],
      "stateMutability": "nonpayable",
      "type": "function"
    },
    {
      "inputs": [
        {
          "internalType": "string",
          "name": "match_id",
          "type": "string"
        },
        {
          "internalType": "string",
          "name": "uuid",
          "type": "string"
        },
        {
          "internalType": "bytes32",
          "name": "squadHash",
          "type": "bytes32"
        }
      ],
      "name": "submitSquad",
      "outputs": [],
      "stateMutability": "payable",
      "type": "function"
    },
    {
      "inputs": [],
      "name": "total_scores_players",
      "outputs": [
        {
          "internalType": "int256",
          "name": "",
          "type": "int256"
        }
      ],
      "stateMutability": "view",
      "type": "function"
    }
  ],
  "transactionHash": "0x7fbe60cfb8da08ee6c0060f507009502ab7c1d0d159d62b3408a2861956432b2",
  "args": [],
  "numDeployments": 2,
  "solcInputHash": "108cff846d2c6620235b0fdf6895dd27",
  "bytecode": "0x60a0604052600160045534801561001557600080fd5b50600380546001600160a01b03191673cc79157eb46f5624204f47ab42b3906caa40eab7179055600280546001600160a01b03191673fafedb041c0dd4fa2dc0d87a6b0979ee6fa7af5f17905573cc79157eb46f5624204f47ab42b3906caa40eab76080527f6663663431343064363936643434623638373031323233323934386264643564600655600a6100b3670de0b6b3a764000060016100c5565b6100bd91906100f0565b600755610112565b80820281158282048414176100ea57634e487b7160e01b600052601160045260246000fd5b92915050565b60008261010d57634e487b7160e01b600052601260045260246000fd5b500490565b6080516113f761012a600039600050506113f76000f3fe60806040526004361061007b5760003560e01c8063bd8664ce1161004e578063bd8664ce1461015d578063bda71d04146101a8578063e343439f146101c8578063e4b11391146101e857600080fd5b8063102d4e1b14610080578063197e1f39146101045780632905e764146101265780636c06b1a31461014a575b600080fd5b34801561008c57600080fd5b506100d761009b366004610f89565b8051602081830181018051600982529282019190930120915280546001820154600283015460039093015491926001600160a01b039091169184565b604080519485526001600160a01b0390931660208501529183015260608201526080015b60405180910390f35b34801561011057600080fd5b5061012461011f366004610fbd565b610218565b005b34801561013257600080fd5b5061013c60085481565b6040519081526020016100fb565b610124610158366004611001565b610319565b34801561016957600080fd5b5061017d610178366004610f89565b6104ac565b6040805182516001600160a01b031681526020808401519082015291810151908201526060016100fb565b3480156101b457600080fd5b506101246101c336600461106d565b610515565b3480156101d457600080fd5b506101246101e3366004610f89565b610617565b3480156101f457600080fd5b50610208610203366004610f89565b6106e4565b60405190151581526020016100fb565b336001600160a01b031660098360405161023291906110b3565b908152604051908190036020019020600101546001600160a01b031614801561027b57508060098360405161026791906110b3565b908152602001604051809103902060030154145b1561031557600060098360405161029291906110b3565b908152604051908190036020018120600201549150339082156108fc029083906000818181858888f193505050501580156102d1573d6000803e3d6000fd5b5060006008556040517f2424f3887c382ef65bff0c7d447a7368b0157e422ef1929b9d46bf64d30e580d9061030b908590339085906110fb565b60405180910390a1505b5050565b6040805160608101825233815260085460208201528082018390529051600a906103449085906110b3565b9081526040805160209281900383018120845181546001600160a01b0319166001600160a01b03909116178155928401516001840155920151600290910155600854906009906103959086906110b3565b90815260405190819003602001902054121561043b576008546009846040516103be91906110b3565b9081526040519081900360200181209190915533906009906103e19086906110b3565b908152602001604051809103902060010160006101000a8154816001600160a01b0302191690836001600160a01b031602179055508060098460405161042791906110b3565b908152604051908190036020019020600301555b3460098460405161044c91906110b3565b9081526020016040518091039020600201600082825461046c919061113f565b90915550506008546040517fec75acb7eb31f39481f33bc0468419aab01d57b18f59af2edd9961c860b0da799161030b9186918691339134918890611152565b60408051606081018252600080825260208201819052818301529051600a906104d69084906110b3565b90815260408051918290036020908101832060608401835280546001600160a01b03168452600181015491840191909152600201549082015292915050565b60008281526005602052604090205482906001600160a01b031633146105935760405162461bcd60e51b815260206004820152602860248201527f536f75726365206d75737420626520746865206f7261636c65206f6620746865604482015267081c995c5d595cdd60c21b60648201526084015b60405180910390fd5b60008181526005602052604080822080546001600160a01b03191690555182917f7cc135e0cebb02c3480ae5d74d377283180a2601f8f644edf7987b009316c63a91a2827ff12dc8d5ba3d33932afe9cf50f4d8f0b4f7ae9af5ed3edaec31193a26f2665e78360405161060891815260200190565b60405180910390a25060085550565b600061062d6006543063bda71d0460e01b610731565b60408051808201909152600381526219d95d60ea1b602082015290915061065690829084610756565b6106aa604051806040016040528060048152602001630e0c2e8d60e31b8152506040518060400160405280600b81526020016a746f74616c5f73636f726560a81b815250836107569092919063ffffffff16565b60408051808201909152600581526474696d657360d81b60208201526106d39082906001610774565b6106df81600754610792565b505050565b6000336001600160a01b031660098360405161070091906110b3565b908152604051908190036020019020600101546001600160a01b03160361072957506001919050565b506000919050565b610739610eac565b610741610eac565b61074d818686866107b5565b95945050505050565b608083015161076590836107fb565b60808301516106df90826107fb565b608083015161078390836107fb565b60808301516106df9082610812565b6003546000906107ac906001600160a01b03168484610871565b90505b92915050565b6107bd610eac565b6107cd8560800151610100610904565b50508284526001600160a01b03821660208501526001600160e01b031981166040850152835b949350505050565b6108088260038351610969565b6106df8282610a76565b67ffffffffffffffff1981121561082d576103158282610a9d565b6001600160401b03811315610846576103158282610adf565b6000811261085a5761031582600083610969565b61031582600161086c846000196111a6565b610969565b60045460009061088281600161113f565b600455835160408086015160808701515191516000936320214ca360e11b936108ba9386938493923092918a916001916024016111cd565b60408051601f198184030181529190526020810180516001600160e01b03166001600160e01b03199093169290921790915290506108fa86838684610b02565b9695505050505050565b604080518082019091526060815260006020820152610924602083611235565b1561094c57610934602083611235565b61093f906020611257565b610949908361113f565b91505b506020828101829052604080518085526000815290920101905290565b6017816001600160401b0316116109935761098d8360e0600585901b168317610c60565b50505050565b60ff816001600160401b0316116109cf576109b9836018611fe0600586901b1617610c60565b5061098d836001600160401b0383166001610c85565b61ffff816001600160401b031611610a0c576109f6836019611fe0600586901b1617610c60565b5061098d836001600160401b0383166002610c85565b63ffffffff816001600160401b031611610a4b57610a3583601a611fe0600586901b1617610c60565b5061098d836001600160401b0383166004610c85565b610a6083601b611fe0600586901b1617610c60565b5061098d836001600160401b0383166008610c85565b6040805180820190915260608152600060208201526107ac83846000015151848551610cab565b610aa88260c3610c60565b5061031582610ab9836000196111a6565b604051602001610acb91815260200190565b604051602081830303815290604052610d95565b610aea8260c2610c60565b506103158282604051602001610acb91815260200190565b6040516bffffffffffffffffffffffff193060601b1660208201526034810184905260009060540160408051808303601f1901815282825280516020918201206000818152600590925291812080546001600160a01b0319166001600160a01b038a1617905590925082917fb5e6e01e79f91267dc17b4e6314d5d4d03593d2ceee0fbb452b750bd70ea5af99190a2600254604051630200057560e51b81526001600160a01b0390911690634000aea090610bc59088908790879060040161126a565b6020604051808303816000875af1158015610be4573d6000803e3d6000fd5b505050506040513d601f19601f82011682018060405250810190610c089190611291565b6107f35760405162461bcd60e51b815260206004820152602360248201527f756e61626c6520746f207472616e73666572416e6443616c6c20746f206f7261604482015262636c6560e81b606482015260840161058a565b6040805180820190915260608152600060208201526107ac8384600001515184610da2565b6040805180820190915260608152600060208201526107f3848560000151518585610dfd565b6040805180820190915260608152600060208201528251821115610cce57600080fd5b6020850151610cdd838661113f565b1115610d1057610d1085610d0087602001518786610cfb919061113f565b610e7e565b610d0b9060026112ba565b610e95565b600080865180518760208301019350808887011115610d2f5787860182525b505050602084015b60208410610d6f5780518252610d4e60208361113f565b9150610d5b60208261113f565b9050610d68602085611257565b9350610d37565b51815160001960208690036101000a019081169019919091161790525083949350505050565b6108088260028351610969565b60408051808201909152606081526000602082015283602001518310610dd757610dd78485602001516002610d0b91906112ba565b8351805160208583010184815350808503610df3576001810182525b5093949350505050565b6040805180820190915260608152600060208201526020850151610e21858461113f565b1115610e3557610e3585610d00868561113f565b60006001610e45846101006113b5565b610e4f9190611257565b9050855183868201018583198251161781525080518487011115610e735783860181525b509495945050505050565b600081831115610e8f5750816107af565b50919050565b8151610ea18383610904565b5061098d8382610a76565b6040805160a0810182526000808252602080830182905282840182905260608084018390528451808601909552845283015290608082015290565b634e487b7160e01b600052604160045260246000fd5b600082601f830112610f0e57600080fd5b81356001600160401b0380821115610f2857610f28610ee7565b604051601f8301601f19908116603f01168101908282118183101715610f5057610f50610ee7565b81604052838152866020858801011115610f6957600080fd5b836020870160208301376000602085830101528094505050505092915050565b600060208284031215610f9b57600080fd5b81356001600160401b03811115610fb157600080fd5b6107f384828501610efd565b60008060408385031215610fd057600080fd5b82356001600160401b03811115610fe657600080fd5b610ff285828601610efd565b95602094909401359450505050565b60008060006060848603121561101657600080fd5b83356001600160401b038082111561102d57600080fd5b61103987838801610efd565b9450602086013591508082111561104f57600080fd5b5061105c86828701610efd565b925050604084013590509250925092565b6000806040838503121561108057600080fd5b50508035926020909101359150565b60005b838110156110aa578181015183820152602001611092565b50506000910152565b600082516110c581846020870161108f565b9190910192915050565b600081518084526110e781602086016020860161108f565b601f01601f19169290920160200192915050565b60608152600061110e60608301866110cf565b6001600160a01b039490941660208301525060400152919050565b634e487b7160e01b600052601160045260246000fd5b808201808211156107af576107af611129565b60c08152600061116560c08301896110cf565b828103602084015261117781896110cf565b6001600160a01b0397909716604084015250506060810193909352608083019190915260a09091015292915050565b81810360008312801583831316838312821617156111c6576111c6611129565b5092915050565b6001600160a01b0389811682526020820189905260408201889052861660608201526001600160e01b03198516608082015260a0810184905260c0810183905261010060e08201819052600090611226838201856110cf565b9b9a5050505050505050505050565b60008261125257634e487b7160e01b600052601260045260246000fd5b500690565b818103818111156107af576107af611129565b60018060a01b038416815282602082015260606040820152600061074d60608301846110cf565b6000602082840312156112a357600080fd5b815180151581146112b357600080fd5b9392505050565b80820281158282048414176107af576107af611129565b600181815b8085111561130c5781600019048211156112f2576112f2611129565b808516156112ff57918102915b93841c93908002906112d6565b509250929050565b600082611323575060016107af565b81611330575060006107af565b816001811461134657600281146113505761136c565b60019150506107af565b60ff84111561136157611361611129565b50506001821b6107af565b5060208310610133831016604e8410600b841016171561138f575081810a6107af565b61139983836112d1565b80600019048211156113ad576113ad611129565b029392505050565b60006107ac838361131456fea2646970667358221220b08cd2eb28fcb1e1652042a0f52315513abacf0bea639c1ca3ecb7306ef6089564736f6c63430008130033",
  "devdoc": {
    "kind": "dev",
    "methods": {},
    "version": 1
  },
  "userdoc": {
    "kind": "user",
    "methods": {},
    "version": 1
  },
  "storageLayout": {
    "storage": [
      {
        "astId": 325,
        "contract": "contracts/Protocol.sol:Protocol",
        "label": "s_ens",
        "offset": 0,
        "slot": "0",
        "type": "t_contract(ENSInterface)1769"
      },
      {
        "astId": 327,
        "contract": "contracts/Protocol.sol:Protocol",
        "label": "s_ensNode",
        "offset": 0,
        "slot": "1",
        "type": "t_bytes32"
      },
      {
        "astId": 330,
        "contract": "contracts/Protocol.sol:Protocol",
        "label": "s_link",
        "offset": 0,
        "slot": "2",
        "type": "t_contract(LinkTokenInterface)2169"
      },
      {
        "astId": 333,
        "contract": "contracts/Protocol.sol:Protocol",
        "label": "s_oracle",
        "offset": 0,
        "slot": "3",
        "type": "t_contract(OperatorInterface)1834"
      },
      {
        "astId": 336,
        "contract": "contracts/Protocol.sol:Protocol",
        "label": "s_requestCount",
        "offset": 0,
        "slot": "4",
        "type": "t_uint256"
      },
      {
        "astId": 340,
        "contract": "contracts/Protocol.sol:Protocol",
        "label": "s_pendingRequests",
        "offset": 0,
        "slot": "5",
        "type": "t_mapping(t_bytes32,t_address)"
      },
      {
        "astId": 4442,
        "contract": "contracts/Protocol.sol:Protocol",
        "label": "jobId",
        "offset": 0,
        "slot": "6",
        "type": "t_bytes32"
      },
      {
        "astId": 4444,
        "contract": "contracts/Protocol.sol:Protocol",
        "label": "fee",
        "offset": 0,
        "slot": "7",
        "type": "t_uint256"
      },
      {
        "astId": 4446,
        "contract": "contracts/Protocol.sol:Protocol",
        "label": "total_scores_players",
        "offset": 0,
        "slot": "8",
        "type": "t_int256"
      },
      {
        "astId": 4498,
        "contract": "contracts/Protocol.sol:Protocol",
        "label": "matchWinnerData",
        "offset": 0,
        "slot": "9",
        "type": "t_mapping(t_string_memory_ptr,t_struct(WinnerData)4493_storage)"
      },
      {
        "astId": 4503,
        "contract": "contracts/Protocol.sol:Protocol",
        "label": "matchUserData",
        "offset": 0,
        "slot": "10",
        "type": "t_mapping(t_string_memory_ptr,t_struct(MatchUserSquad)4484_storage)"
      }
    ],
    "types": {
      "t_address": {
        "encoding": "inplace",
        "label": "address",
        "numberOfBytes": "20"
      },
      "t_bytes32": {
        "encoding": "inplace",
        "label": "bytes32",
        "numberOfBytes": "32"
      },
      "t_contract(ENSInterface)1769": {
        "encoding": "inplace",
        "label": "contract ENSInterface",
        "numberOfBytes": "20"
      },
      "t_contract(LinkTokenInterface)2169": {
        "encoding": "inplace",
        "label": "contract LinkTokenInterface",
        "numberOfBytes": "20"
      },
      "t_contract(OperatorInterface)1834": {
        "encoding": "inplace",
        "label": "contract OperatorInterface",
        "numberOfBytes": "20"
      },
      "t_int256": {
        "encoding": "inplace",
        "label": "int256",
        "numberOfBytes": "32"
      },
      "t_mapping(t_bytes32,t_address)": {
        "encoding": "mapping",
        "key": "t_bytes32",
        "label": "mapping(bytes32 => address)",
        "numberOfBytes": "32",
        "value": "t_address"
      },
      "t_mapping(t_string_memory_ptr,t_struct(MatchUserSquad)4484_storage)": {
        "encoding": "mapping",
        "key": "t_string_memory_ptr",
        "label": "mapping(string => struct Protocol.MatchUserSquad)",
        "numberOfBytes": "32",
        "value": "t_struct(MatchUserSquad)4484_storage"
      },
      "t_mapping(t_string_memory_ptr,t_struct(WinnerData)4493_storage)": {
        "encoding": "mapping",
        "key": "t_string_memory_ptr",
        "label": "mapping(string => struct Protocol.WinnerData)",
        "numberOfBytes": "32",
        "value": "t_struct(WinnerData)4493_storage"
      },
      "t_string_memory_ptr": {
        "encoding": "bytes",
        "label": "string",
        "numberOfBytes": "32"
      },
      "t_struct(MatchUserSquad)4484_storage": {
        "encoding": "inplace",
        "label": "struct Protocol.MatchUserSquad",
        "members": [
          {
            "astId": 4479,
            "contract": "contracts/Protocol.sol:Protocol",
            "label": "user_address",
            "offset": 0,
            "slot": "0",
            "type": "t_address"
          },
          {
            "astId": 4481,
            "contract": "contracts/Protocol.sol:Protocol",
            "label": "total_points",
            "offset": 0,
            "slot": "1",
            "type": "t_int256"
          },
          {
            "astId": 4483,
            "contract": "contracts/Protocol.sol:Protocol",
            "label": "squadHash",
            "offset": 0,
            "slot": "2",
            "type": "t_bytes32"
          }
        ],
        "numberOfBytes": "96"
      },
      "t_struct(WinnerData)4493_storage": {
        "encoding": "inplace",
        "label": "struct Protocol.WinnerData",
        "members": [
          {
            "astId": 4486,
            "contract": "contracts/Protocol.sol:Protocol",
            "label": "matchWinnerPoints",
            "offset": 0,
            "slot": "0",
            "type": "t_int256"
          },
          {
            "astId": 4488,
            "contract": "contracts/Protocol.sol:Protocol",
            "label": "matchWinner",
            "offset": 0,
            "slot": "1",
            "type": "t_address"
          },
          {
            "astId": 4490,
            "contract": "contracts/Protocol.sol:Protocol",
            "label": "matchPrizePool",
            "offset": 0,
            "slot": "2",
            "type": "t_uint256"
          },
          {
            "astId": 4492,
            "contract": "contracts/Protocol.sol:Protocol",
            "label": "squadHash",
            "offset": 0,
            "slot": "3",
            "type": "t_bytes32"
          }
        ],
        "numberOfBytes": "128"
      },
      "t_uint256": {
        "encoding": "inplace",
        "label": "uint256",
        "numberOfBytes": "32"
      }
    }
  }
}